{
  "contractName": "Casino",
  "abi": [
    {
      "constant": false,
      "inputs": [],
      "name": "generateNumberWinner",
      "outputs": [],
      "payable": false,
      "stateMutability": "nonpayable",
      "type": "function"
    },
    {
      "constant": false,
      "inputs": [
        {
          "name": "player",
          "type": "address"
        }
      ],
      "name": "checkPlayerExists",
      "outputs": [
        {
          "name": "",
          "type": "bool"
        }
      ],
      "payable": false,
      "stateMutability": "nonpayable",
      "type": "function"
    },
    {
      "constant": false,
      "inputs": [],
      "name": "kill",
      "outputs": [],
      "payable": false,
      "stateMutability": "nonpayable",
      "type": "function"
    },
    {
      "constant": false,
      "inputs": [
        {
          "name": "numberWinner",
          "type": "uint256"
        }
      ],
      "name": "distributePrizes",
      "outputs": [],
      "payable": false,
      "stateMutability": "nonpayable",
      "type": "function"
    },
    {
      "constant": false,
      "inputs": [
        {
          "name": "number",
          "type": "uint256"
        }
      ],
      "name": "bet",
      "outputs": [],
      "payable": true,
      "stateMutability": "payable",
      "type": "function"
    },
    {
      "inputs": [
        {
          "name": "_minimumBet",
          "type": "uint256"
        }
      ],
      "payable": false,
      "stateMutability": "nonpayable",
      "type": "constructor"
    },
    {
      "payable": true,
      "stateMutability": "payable",
      "type": "fallback"
    }
  ],
  "bytecode": "0x60606040526064600455341561001457600080fd5b60405160208061079883398101604052808051906020019091905050336000806101000a81548173ffffffffffffffffffffffffffffffffffffffff021916908373ffffffffffffffffffffffffffffffffffffffff16021790555060008114151561008257806001819055505b50610706806100926000396000f30060606040526004361061006d576000357c0100000000000000000000000000000000000000000000000000000000900463ffffffff1680630a50e3611461006f5780634081d9161461008457806341c0e1b5146100d55780636ca3fc3b146100ea5780637365870b1461010d575b005b341561007a57600080fd5b610082610125565b005b341561008f57600080fd5b6100bb600480803573ffffffffffffffffffffffffffffffffffffffff16906020019091905050610145565b604051808215151515815260200191505060405180910390f35b34156100e057600080fd5b6100e86101e9565b005b34156100f557600080fd5b61010b600480803590602001909190505061027a565b005b61012360048080359060200190919050506104b3565b005b60006001600a4381151561013557fe5b060190506101428161027a565b50565b600080600090505b6005805490508110156101de578273ffffffffffffffffffffffffffffffffffffffff1660058281548110151561018057fe5b906000526020600020900160009054906101000a900473ffffffffffffffffffffffffffffffffffffffff1673ffffffffffffffffffffffffffffffffffffffff1614156101d157600191506101e3565b808060010191505061014d565b600091505b50919050565b6000809054906101000a900473ffffffffffffffffffffffffffffffffffffffff1673ffffffffffffffffffffffffffffffffffffffff163373ffffffffffffffffffffffffffffffffffffffff161415610278576000809054906101000a900473ffffffffffffffffffffffffffffffffffffffff1673ffffffffffffffffffffffffffffffffffffffff16ff5b565b61028261061e565b6000806000806000809450600093505b6005805490508410156103d4576005848154811015156102ae57fe5b906000526020600020900160009054906101000a900473ffffffffffffffffffffffffffffffffffffffff16925086600660008573ffffffffffffffffffffffffffffffffffffffff1673ffffffffffffffffffffffffffffffffffffffff1681526020019081526020016000206001015414156103755782868660648110151561033557fe5b602002019073ffffffffffffffffffffffffffffffffffffffff16908173ffffffffffffffffffffffffffffffffffffffff168152505084806001019550505b600660008473ffffffffffffffffffffffffffffffffffffffff1673ffffffffffffffffffffffffffffffffffffffff168152602001908152602001600020600080820160009055600182016000905550508380600101945050610292565b60006005816103e3919061065d565b5060646002548115156103f257fe5b049150600090505b848110156104aa57600073ffffffffffffffffffffffffffffffffffffffff16868260648110151561042857fe5b602002015173ffffffffffffffffffffffffffffffffffffffff1614151561049d57858160648110151561045857fe5b602002015173ffffffffffffffffffffffffffffffffffffffff166108fc839081150290604051600060405180830381858888f19350505050151561049c57600080fd5b5b80806001019150506103fa565b50505050505050565b600015156104c033610145565b15151415156104cb57fe5b600181101580156104dd5750600a8111155b15156104e557fe5b60015434101515156104f357fe5b34600660003373ffffffffffffffffffffffffffffffffffffffff1673ffffffffffffffffffffffffffffffffffffffff1681526020019081526020016000206000018190555080600660003373ffffffffffffffffffffffffffffffffffffffff1673ffffffffffffffffffffffffffffffffffffffff168152602001908152602001600020600101819055506001600360008282540192505081905550600580548060010182816105a69190610689565b9160005260206000209001600033909190916101000a81548173ffffffffffffffffffffffffffffffffffffffff021916908373ffffffffffffffffffffffffffffffffffffffff160217905550503460026000828254019250508190555060045460035410151561061b5761061a610125565b5b50565b610c80604051908101604052806064905b600073ffffffffffffffffffffffffffffffffffffffff1681526020019060019003908161062f5790505090565b8154818355818115116106845781836000526020600020918201910161068391906106b5565b5b505050565b8154818355818115116106b0578183600052602060002091820191016106af91906106b5565b5b505050565b6106d791905b808211156106d35760008160009055506001016106bb565b5090565b905600a165627a7a72305820e09ccef27110373a97c16c5f87f3f55d126bb03fdb1e299f5550573a617bd26b0029",
  "source": "pragma solidity ^0.4.11;\n\ncontract Casino {\n   address owner;\n   function Casino(uint _minimumBet){\n      owner = msg.sender;\n      if(_minimumBet != 0 ) minimumBet = _minimumBet;\n   }\n   function kill(){\n      if(msg.sender == owner)\n         selfdestruct(owner);\n   }\n\n   uint minimumBet;\n   uint totalBet;\n   uint numberOfBets;\n   uint maxAmountOfBets = 100;\n   address[] players;\n   struct Player {\n      uint amountBet;\n      uint numberSelected;\n   }\n   mapping(address => Player) playerInfo;\n\n   // To bet for a number between 1 and 10 both inclusive\n\n  function bet(uint number) payable{\n     assert(checkPlayerExists(msg.sender) == false);\n     assert(number >= 1 && number <= 10);\n     assert(msg.value >= minimumBet);\n     playerInfo[msg.sender].amountBet = msg.value;\n     playerInfo[msg.sender].numberSelected = number;\n     numberOfBets += 1;\n     players.push(msg.sender);\n     totalBet += msg.value;\n\n     if(numberOfBets >= maxAmountOfBets) generateNumberWinner();\n\n  }\n\n  function checkPlayerExists(address player) returns(bool){\n     for(uint i = 0; i < players.length; i++){\n        if(players[i] == player) return true;\n     }\n     return false;\n  }\n\n  // Generates a number between 1 and 10\n  function generateNumberWinner(){\n     uint numberGenerated = block.number % 10 + 1; // This isn't secure\n     distributePrizes(numberGenerated);\n  }\n\n  // Sends the corresponding ether to each winner depending on the total bets\n  function distributePrizes(uint numberWinner){\n     address[100] memory winners; // We have to create a temporary in memory array with fixed size\n     uint count = 0; // This is the count for the array of winners\n     for(uint i = 0; i < players.length; i++){\n        address playerAddress = players[i];\n        if(playerInfo[playerAddress].numberSelected == numberWinner){\n           winners[count] = playerAddress;\n           count++;\n        }\n        delete playerInfo[playerAddress]; // Delete all the players\n     }\n     players.length = 0; // Delete all the players array\n     uint winnerEtherAmount = totalBet / winners.length; // How much each winner gets\n     for(uint j = 0; j < count; j++){\n        if(winners[j] != address(0)) // Check that the address in this fixed array is not empty\n           winners[j].transfer(winnerEtherAmount);\n     }\n  }\n\n  // Fallback function in case someone sends ether to the contract so it doesn't get lost\n   function() payable {}\n\n}\n",
  "sourcePath": "/Users/Anish/Desktop/COSC98/HackCryptoCity/casino-ethereum/contracts/Casino.sol",
  "compiler": {
    "name": "solc",
    "version": "0.4.18+commit.9cf6e910.Emscripten.clang"
  },
  "schemaVersion": "1.0.1",
  "updatedAt": "2018-01-10T03:41:42.502Z"
}